{
  "contractName": "ContractRegister",
  "abi": [
    {
      "inputs": [],
      "stateMutability": "nonpayable",
      "type": "constructor"
    },
    {
      "inputs": [],
      "name": "backendContract",
      "outputs": [
        {
          "internalType": "address",
          "name": "",
          "type": "address"
        }
      ],
      "stateMutability": "view",
      "type": "function",
      "constant": true
    },
    {
      "inputs": [],
      "name": "owner",
      "outputs": [
        {
          "internalType": "address",
          "name": "",
          "type": "address"
        }
      ],
      "stateMutability": "view",
      "type": "function",
      "constant": true
    },
    {
      "inputs": [],
      "name": "getOwner",
      "outputs": [
        {
          "internalType": "address",
          "name": "",
          "type": "address"
        }
      ],
      "stateMutability": "view",
      "type": "function",
      "constant": true
    },
    {
      "inputs": [
        {
          "internalType": "address",
          "name": "newBackend",
          "type": "address"
        }
      ],
      "name": "changeBackend",
      "outputs": [
        {
          "internalType": "bool",
          "name": "",
          "type": "bool"
        }
      ],
      "stateMutability": "nonpayable",
      "type": "function"
    }
  ],
  "bytecode": "0x608060405234801561001057600080fd5b5033600260006101000a81548173ffffffffffffffffffffffffffffffffffffffff021916908373ffffffffffffffffffffffffffffffffffffffff1602179055506103b1806100616000396000f3fe608060405234801561001057600080fd5b506004361061004c5760003560e01c80636f752f0914610051578063893d20e8146100855780638da5cb5b146100b9578063eaecfca7146100ed575b600080fd5b610059610147565b604051808273ffffffffffffffffffffffffffffffffffffffff16815260200191505060405180910390f35b61008d61016b565b604051808273ffffffffffffffffffffffffffffffffffffffff16815260200191505060405180910390f35b6100c1610195565b604051808273ffffffffffffffffffffffffffffffffffffffff16815260200191505060405180910390f35b61012f6004803603602081101561010357600080fd5b81019080803573ffffffffffffffffffffffffffffffffffffffff1690602001909291905050506101bb565b60405180821515815260200191505060405180910390f35b60008054906101000a900473ffffffffffffffffffffffffffffffffffffffff1681565b6000600260009054906101000a900473ffffffffffffffffffffffffffffffffffffffff16905090565b600260009054906101000a900473ffffffffffffffffffffffffffffffffffffffff1681565b6000600260009054906101000a900473ffffffffffffffffffffffffffffffffffffffff1673ffffffffffffffffffffffffffffffffffffffff163373ffffffffffffffffffffffffffffffffffffffff161461021757600080fd5b600073ffffffffffffffffffffffffffffffffffffffff168273ffffffffffffffffffffffffffffffffffffffff16141580156102a0575060008054906101000a900473ffffffffffffffffffffffffffffffffffffffff1673ffffffffffffffffffffffffffffffffffffffff168273ffffffffffffffffffffffffffffffffffffffff1614155b1561037157600160008054906101000a900473ffffffffffffffffffffffffffffffffffffffff169080600181540180825580915050600190039060005260206000200160009091909190916101000a81548173ffffffffffffffffffffffffffffffffffffffff021916908373ffffffffffffffffffffffffffffffffffffffff160217905550816000806101000a81548173ffffffffffffffffffffffffffffffffffffffff021916908373ffffffffffffffffffffffffffffffffffffffff16021790555060019050610376565b600090505b91905056fea2646970667358221220c52fd88e21376ef72a374cca5ebb25e4eee796c128996fc7196400446979956c64736f6c634300060c0033",
  "immutableReferences": {},
  "source": "pragma solidity >=0.5 <0.9;\n\n/// @title A contract register for middleman contract\n/// @author Mei Lazell\ncontract ContractRegister {\n    address public backendContract;\n    address[] previousBackends;\n    address public owner;\n\n    /// @notice Set the contract owner as the creator of the contract\n    constructor() public{\n        owner = msg.sender;\n    }\n    /// @notice Ensure the funciton using this modifier can only called by the oner\n    modifier onlyOwner() {\n        require(msg.sender == owner);\n        _;\n    }\n    /// @notice Get the owner of the smart contract\n    /// @return address the address of the owner for ContractRegister\n    function getOwner() public view returns (address){\n        return owner;\n    }\n    /// @notice Change backend contract to a new one by the owner\n    /// @param newBackend The address of the new backend contract\n    /// @return bool boolean value whether the backend contract has been updated\n    function changeBackend(address newBackend) public onlyOwner returns (bool)\n    {\n        if(newBackend != address(0) && newBackend != backendContract) {\n            previousBackends.push(backendContract);\n            backendContract = newBackend;\n            return true;\n        }\n        return false;\n    }\n}",
  "sourcePath": "/Users/mei/cryptostudy/blockchain-developer-bootcamp-final-project/contracts/ContractRegister.sol",
  "compiler": {
    "name": "solc",
    "version": "0.6.12+commit.27d51765.Emscripten.clang"
  },
  "schemaVersion": "3.4.3",
  "updatedAt": "2021-11-27T21:57:29.398Z",
  "networkType": "ethereum",
  "devdoc": {
    "author": "Mei Lazell",
    "kind": "dev",
    "methods": {
      "changeBackend(address)": {
        "params": {
          "newBackend": "The address of the new backend contract"
        },
        "returns": {
          "_0": "bool boolean value whether the backend contract has been updated"
        }
      },
      "getOwner()": {
        "returns": {
          "_0": "address the address of the owner for ContractRegister"
        }
      }
    },
    "title": "A contract register for middleman contract",
    "version": 1
  },
  "userdoc": {
    "kind": "user",
    "methods": {
      "changeBackend(address)": {
        "notice": "Change backend contract to a new one by the owner"
      },
      "constructor": "Set the contract owner as the creator of the contract",
      "getOwner()": {
        "notice": "Get the owner of the smart contract"
      }
    },
    "version": 1
  }
}