{
  "contractName": "MiddleMan",
  "abi": [
    {
      "inputs": [],
      "payable": false,
      "stateMutability": "nonpayable",
      "type": "constructor"
    },
    {
      "anonymous": false,
      "inputs": [
        {
          "indexed": false,
          "internalType": "address",
          "name": "accountAddress",
          "type": "address"
        }
      ],
      "name": "LogEnrolled",
      "type": "event"
    },
    {
      "payable": true,
      "stateMutability": "payable",
      "type": "fallback"
    },
    {
      "constant": true,
      "inputs": [
        {
          "internalType": "address",
          "name": "",
          "type": "address"
        }
      ],
      "name": "enrolled",
      "outputs": [
        {
          "internalType": "bool",
          "name": "",
          "type": "bool"
        }
      ],
      "payable": false,
      "stateMutability": "view",
      "type": "function"
    },
    {
      "constant": true,
      "inputs": [],
      "name": "owner",
      "outputs": [
        {
          "internalType": "address",
          "name": "",
          "type": "address"
        }
      ],
      "payable": false,
      "stateMutability": "view",
      "type": "function"
    },
    {
      "constant": false,
      "inputs": [],
      "name": "enroll",
      "outputs": [
        {
          "internalType": "bool",
          "name": "",
          "type": "bool"
        }
      ],
      "payable": false,
      "stateMutability": "nonpayable",
      "type": "function"
    },
    {
      "constant": false,
      "inputs": [
        {
          "internalType": "address",
          "name": "addr_to",
          "type": "address"
        }
      ],
      "name": "withhold",
      "outputs": [],
      "payable": true,
      "stateMutability": "payable",
      "type": "function"
    },
    {
      "constant": false,
      "inputs": [
        {
          "internalType": "address",
          "name": "receiver",
          "type": "address"
        }
      ],
      "name": "refundSender",
      "outputs": [
        {
          "internalType": "bool",
          "name": "",
          "type": "bool"
        }
      ],
      "payable": false,
      "stateMutability": "nonpayable",
      "type": "function"
    },
    {
      "constant": false,
      "inputs": [
        {
          "internalType": "address payable",
          "name": "receiver",
          "type": "address"
        }
      ],
      "name": "distributeToReceiver",
      "outputs": [
        {
          "internalType": "bool",
          "name": "",
          "type": "bool"
        }
      ],
      "payable": false,
      "stateMutability": "nonpayable",
      "type": "function"
    },
    {
      "constant": true,
      "inputs": [],
      "name": "getContractBalance",
      "outputs": [
        {
          "internalType": "uint256",
          "name": "",
          "type": "uint256"
        }
      ],
      "payable": false,
      "stateMutability": "view",
      "type": "function"
    },
    {
      "constant": true,
      "inputs": [
        {
          "internalType": "address",
          "name": "receiver",
          "type": "address"
        }
      ],
      "name": "getBalanceForReceiver",
      "outputs": [
        {
          "internalType": "uint256",
          "name": "",
          "type": "uint256"
        }
      ],
      "payable": false,
      "stateMutability": "view",
      "type": "function"
    },
    {
      "constant": true,
      "inputs": [],
      "name": "getOwnerBalance",
      "outputs": [
        {
          "internalType": "uint256",
          "name": "ownerBalance",
          "type": "uint256"
        }
      ],
      "payable": false,
      "stateMutability": "view",
      "type": "function"
    },
    {
      "constant": true,
      "inputs": [
        {
          "internalType": "address",
          "name": "addr",
          "type": "address"
        }
      ],
      "name": "balanceOf",
      "outputs": [
        {
          "internalType": "uint256",
          "name": "accountBalance",
          "type": "uint256"
        }
      ],
      "payable": false,
      "stateMutability": "view",
      "type": "function"
    }
  ],
  "bytecode": "0x6080604052336000806101000a81548173ffffffffffffffffffffffffffffffffffffffff021916908373ffffffffffffffffffffffffffffffffffffffff16021790555034801561005057600080fd5b50610c5a806100606000396000f3fe6080604052600436106100915760003560e01c806370a082311161005957806370a08231146101ff578063863888ac146102645780638da5cb5b146102c95780639a96266014610320578063e65f2a7e1461038957610091565b806310eb0e0e146100935780632ae663ed146100fc5780634204fdc014610140578063590791f2146101a95780636f9fb98a146101d4575b005b34801561009f57600080fd5b506100e2600480360360208110156100b657600080fd5b81019080803573ffffffffffffffffffffffffffffffffffffffff1690602001909291905050506103b8565b604051808215151515815260200191505060405180910390f35b61013e6004803603602081101561011257600080fd5b81019080803573ffffffffffffffffffffffffffffffffffffffff1690602001909291905050506103d8565b005b34801561014c57600080fd5b5061018f6004803603602081101561016357600080fd5b81019080803573ffffffffffffffffffffffffffffffffffffffff1690602001909291905050506104c2565b604051808215151515815260200191505060405180910390f35b3480156101b557600080fd5b506101be610737565b6040518082815260200191505060405180910390f35b3480156101e057600080fd5b506101e9610777565b6040518082815260200191505060405180910390f35b34801561020b57600080fd5b5061024e6004803603602081101561022257600080fd5b81019080803573ffffffffffffffffffffffffffffffffffffffff16906020019092919050505061077f565b6040518082815260200191505060405180910390f35b34801561027057600080fd5b506102b36004803603602081101561028757600080fd5b81019080803573ffffffffffffffffffffffffffffffffffffffff1690602001909291905050506107a0565b6040518082815260200191505060405180910390f35b3480156102d557600080fd5b506102de61087c565b604051808273ffffffffffffffffffffffffffffffffffffffff1673ffffffffffffffffffffffffffffffffffffffff16815260200191505060405180910390f35b34801561032c57600080fd5b5061036f6004803603602081101561034357600080fd5b81019080803573ffffffffffffffffffffffffffffffffffffffff1690602001909291905050506108a1565b604051808215151515815260200191505060405180910390f35b34801561039557600080fd5b5061039e610b16565b604051808215151515815260200191505060405180910390f35b60026020528060005260406000206000915054906101000a900460ff1681565b600260003373ffffffffffffffffffffffffffffffffffffffff1673ffffffffffffffffffffffffffffffffffffffff16815260200190815260200160002060009054906101000a900460ff1661042e57600080fd5b34600360003373ffffffffffffffffffffffffffffffffffffffff1673ffffffffffffffffffffffffffffffffffffffff16815260200190815260200160002060008373ffffffffffffffffffffffffffffffffffffffff1673ffffffffffffffffffffffffffffffffffffffff168152602001908152602001600020819055503460016000828254019250508190555050565b6000600260003373ffffffffffffffffffffffffffffffffffffffff1673ffffffffffffffffffffffffffffffffffffffff16815260200190815260200160002060009054906101000a900460ff1661051a57600080fd5b6000600360003373ffffffffffffffffffffffffffffffffffffffff1673ffffffffffffffffffffffffffffffffffffffff16815260200190815260200160002060008473ffffffffffffffffffffffffffffffffffffffff1673ffffffffffffffffffffffffffffffffffffffff168152602001908152602001600020549050600081101580156105ae57508060015410155b1561072c5760003373ffffffffffffffffffffffffffffffffffffffff168260405180600001905060006040518083038185875af1925050503d8060008114610613576040519150601f19603f3d011682016040523d82523d6000602084013e610618565b606091505b505090508061068f576040517f08c379a00000000000000000000000000000000000000000000000000000000081526004018080602001828103825260108152602001807f4661696c656420746f20726566756e640000000000000000000000000000000081525060200191505060405180910390fd5b6000600360003373ffffffffffffffffffffffffffffffffffffffff1673ffffffffffffffffffffffffffffffffffffffff16815260200190815260200160002060008673ffffffffffffffffffffffffffffffffffffffff1673ffffffffffffffffffffffffffffffffffffffff1681526020019081526020016000208190555081600160008282540392505081905550600192505050610732565b60009150505b919050565b60008060009054906101000a900473ffffffffffffffffffffffffffffffffffffffff1673ffffffffffffffffffffffffffffffffffffffff1631905090565b600047905090565b60008173ffffffffffffffffffffffffffffffffffffffff16319050919050565b6000600260003373ffffffffffffffffffffffffffffffffffffffff1673ffffffffffffffffffffffffffffffffffffffff16815260200190815260200160002060009054906101000a900460ff166107f857600080fd5b600360003373ffffffffffffffffffffffffffffffffffffffff1673ffffffffffffffffffffffffffffffffffffffff16815260200190815260200160002060008373ffffffffffffffffffffffffffffffffffffffff1673ffffffffffffffffffffffffffffffffffffffff168152602001908152602001600020549050919050565b6000809054906101000a900473ffffffffffffffffffffffffffffffffffffffff1681565b6000600260003373ffffffffffffffffffffffffffffffffffffffff1673ffffffffffffffffffffffffffffffffffffffff16815260200190815260200160002060009054906101000a900460ff166108f957600080fd5b6000600360003373ffffffffffffffffffffffffffffffffffffffff1673ffffffffffffffffffffffffffffffffffffffff16815260200190815260200160002060008473ffffffffffffffffffffffffffffffffffffffff1673ffffffffffffffffffffffffffffffffffffffff1681526020019081526020016000205490506000811015801561098d57508060015410155b15610b0b5760008373ffffffffffffffffffffffffffffffffffffffff168260405180600001905060006040518083038185875af1925050503d80600081146109f2576040519150601f19603f3d011682016040523d82523d6000602084013e6109f7565b606091505b5050905080610a6e576040517f08c379a00000000000000000000000000000000000000000000000000000000081526004018080602001828103825260148152602001807f4661696c656420746f206469737472696275746500000000000000000000000081525060200191505060405180910390fd5b6000600360003373ffffffffffffffffffffffffffffffffffffffff1673ffffffffffffffffffffffffffffffffffffffff16815260200190815260200160002060008673ffffffffffffffffffffffffffffffffffffffff1673ffffffffffffffffffffffffffffffffffffffff1681526020019081526020016000208190555081600160008282540392505081905550600192505050610b11565b60009150505b919050565b60006001600260003373ffffffffffffffffffffffffffffffffffffffff1673ffffffffffffffffffffffffffffffffffffffff16815260200190815260200160002060006101000a81548160ff0219169083151502179055507f990c442e6adb818b8fa7db3cf1023decd07f7b66e5306928c7ed527d974192bb33604051808273ffffffffffffffffffffffffffffffffffffffff1673ffffffffffffffffffffffffffffffffffffffff16815260200191505060405180910390a1600260003373ffffffffffffffffffffffffffffffffffffffff1673ffffffffffffffffffffffffffffffffffffffff16815260200190815260200160002060009054906101000a900460ff1690509056fea265627a7a723158207e7d9f8e712afce827498e8a8390952bd0435e604f04ec8d1bd1cc2d5873b35164736f6c63430005100032",
  "source": "pragma solidity >=0.5 <0.9;\n\ncontract MiddleMan{\n    \n    // <owner>\n    // Let's make sure everyone knows who owns the middleman, yes, fill in the\n    // appropriate visilibility keyword\n    address public owner = msg.sender;\n\n    uint private balance; \n\n    // Add an argument for this event, an accountAddress\n    event LogEnrolled(address accountAddress);\n\n    // Fill in the visibility keyword\n    // Hint: We want to create a getter function and allow contracts to be able\n    //       to see if a user is enrolled.\n    mapping (address => bool) public enrolled;\n\n    mapping(address => mapping (address => uint)) private records ;\n    \n    // modifier enoughValue(uint value) \n    modifier enoughValue(uint value) { \n        require(msg.value >= value); \n        _;\n    }\n\n    /// @notice Enroll a customer with the middleman\n    /// @return The users enrolled status\n    // Emit the appropriate event\n    function enroll() public returns (bool){\n      // 1. enroll of the sender of this transaction\n      enrolled[msg.sender] = true;\n      emit LogEnrolled(msg.sender);\n      return enrolled[msg.sender];\n    }\n    //addr_from to request this only\n    //deposit value to contract from addr_from\n    //mark it's from addr_from and wait to be send to addr_to\n    function withhold (address addr_to) public payable {\n        require(enrolled[msg.sender]);\n        records[msg.sender][addr_to] = msg.value;\n        balance += msg.value;\n    }\n\n    //addr_from to request this only\n    //deposit value from contract to address_from for the value withheld for addr_to \n    function refundSender (address receiver) public returns (bool){\n        require(enrolled[msg.sender]);\n        uint value = records[msg.sender][receiver];\n        if (value >= 0 && balance >= value) {\n            //refund the value to addr_from\n            (bool sent,) = msg.sender.call.value(value)(\"\");\n            require(sent, \"Failed to refund\");\n            records[msg.sender][receiver] = 0;\n            balance -= value;\n            return true;\n        } \n        return false;\n    }\n\n    //addr_from to request this only\n    //deposit value from contract to address_to if the request is from  addr_from \n    function distributeToReceiver (address payable receiver) public returns (bool){\n        require(enrolled[msg.sender]);\n        uint value = records[msg.sender][receiver];\n        if (value >= 0 && balance >= value) {\n            (bool sent,) = receiver.call.value(value)(\"\");\n            require(sent, \"Failed to distribute\");\n            records[msg.sender][receiver] = 0;\n            balance -= value;\n            return true;\n        } \n        return false;\n    }\n\n    function getContractBalance() public view returns (uint) {\n        return address(this).balance;\n    }\n\n    function getBalanceForReceiver(address receiver) public view returns (uint) {\n        require(enrolled[msg.sender]);\n        return records[msg.sender][receiver];\n    }\n    function getOwnerBalance() public view returns(uint ownerBalance)\n    {\n        ownerBalance = owner.balance;\n    }\n\n    function balanceOf(address addr) public view returns(uint accountBalance)\n    {\n        accountBalance = addr.balance;\n    }\n\n    constructor() public {\n        // Set the owner to the transaction sender\n        //owner = payable(msg.sender);\n        //owner = msg.sender;\n    }\n    \n    // This contract keeps all Ether sent to it with no way\n    // to get it back.\n    function () external payable {}  \n}",
  "sourcePath": "/Users/mei/cryptostudy/blockchain-developer-bootcamp-final-project/contracts/MiddleMan.sol",
  "compiler": {
    "name": "solc",
    "version": "0.5.16+commit.9c3226ce.Emscripten.clang"
  },
  "schemaVersion": "3.4.3",
  "updatedAt": "2021-11-27T02:19:29.205Z",
  "networkType": "ethereum",
  "devdoc": {
    "methods": {
      "enroll()": {
        "return": "The users enrolled status"
      }
    }
  },
  "userdoc": {
    "methods": {
      "enroll()": {
        "notice": "Enroll a customer with the middleman"
      }
    }
  }
}