{
  "contractName": "MiddleMan",
  "abi": [
    {
      "inputs": [],
      "stateMutability": "nonpayable",
      "type": "constructor"
    },
    {
      "anonymous": false,
      "inputs": [
        {
          "indexed": false,
          "internalType": "address",
          "name": "accountAddress",
          "type": "address"
        }
      ],
      "name": "LogEnrolled",
      "type": "event"
    },
    {
      "stateMutability": "payable",
      "type": "fallback",
      "payable": true
    },
    {
      "inputs": [
        {
          "internalType": "address",
          "name": "",
          "type": "address"
        }
      ],
      "name": "enrolled",
      "outputs": [
        {
          "internalType": "bool",
          "name": "",
          "type": "bool"
        }
      ],
      "stateMutability": "view",
      "type": "function",
      "constant": true
    },
    {
      "stateMutability": "payable",
      "type": "receive",
      "payable": true
    },
    {
      "inputs": [],
      "name": "getOwner",
      "outputs": [
        {
          "internalType": "address",
          "name": "",
          "type": "address"
        }
      ],
      "stateMutability": "view",
      "type": "function",
      "constant": true
    },
    {
      "inputs": [],
      "name": "enroll",
      "outputs": [
        {
          "internalType": "bool",
          "name": "",
          "type": "bool"
        }
      ],
      "stateMutability": "nonpayable",
      "type": "function"
    },
    {
      "inputs": [
        {
          "internalType": "address",
          "name": "receiver",
          "type": "address"
        }
      ],
      "name": "withhold",
      "outputs": [],
      "stateMutability": "payable",
      "type": "function",
      "payable": true
    },
    {
      "inputs": [
        {
          "internalType": "address",
          "name": "receiver",
          "type": "address"
        }
      ],
      "name": "refundSender",
      "outputs": [
        {
          "internalType": "bool",
          "name": "",
          "type": "bool"
        }
      ],
      "stateMutability": "nonpayable",
      "type": "function"
    },
    {
      "inputs": [
        {
          "internalType": "address payable",
          "name": "receiver",
          "type": "address"
        }
      ],
      "name": "distributeToReceiver",
      "outputs": [
        {
          "internalType": "bool",
          "name": "",
          "type": "bool"
        }
      ],
      "stateMutability": "nonpayable",
      "type": "function"
    },
    {
      "inputs": [],
      "name": "getContractBalance",
      "outputs": [
        {
          "internalType": "uint256",
          "name": "",
          "type": "uint256"
        }
      ],
      "stateMutability": "view",
      "type": "function",
      "constant": true
    },
    {
      "inputs": [
        {
          "internalType": "address",
          "name": "receiver",
          "type": "address"
        }
      ],
      "name": "getBalanceForReceiver",
      "outputs": [
        {
          "internalType": "uint256",
          "name": "",
          "type": "uint256"
        }
      ],
      "stateMutability": "view",
      "type": "function",
      "constant": true
    },
    {
      "inputs": [
        {
          "internalType": "address",
          "name": "addr",
          "type": "address"
        }
      ],
      "name": "balanceOf",
      "outputs": [
        {
          "internalType": "uint256",
          "name": "",
          "type": "uint256"
        }
      ],
      "stateMutability": "view",
      "type": "function",
      "constant": true
    }
  ],
  "bytecode": "0x608060405234801561001057600080fd5b50336000806101000a81548173ffffffffffffffffffffffffffffffffffffffff021916908373ffffffffffffffffffffffffffffffffffffffff160217905550610bc0806100606000396000f3fe60806040526004361061008a5760003560e01c806370a082311161005957806370a08231146101d0578063863888ac14610235578063893d20e81461029a5780639a962660146102db578063e65f2a7e1461034257610091565b806310eb0e0e146100935780632ae663ed146100fa5780634204fdc01461013e5780636f9fb98a146101a557610091565b3661009157005b005b34801561009f57600080fd5b506100e2600480360360208110156100b657600080fd5b81019080803573ffffffffffffffffffffffffffffffffffffffff16906020019092919050505061036f565b60405180821515815260200191505060405180910390f35b61013c6004803603602081101561011057600080fd5b81019080803573ffffffffffffffffffffffffffffffffffffffff16906020019092919050505061038f565b005b34801561014a57600080fd5b5061018d6004803603602081101561016157600080fd5b81019080803573ffffffffffffffffffffffffffffffffffffffff169060200190929190505050610479565b60405180821515815260200191505060405180910390f35b3480156101b157600080fd5b506101ba6106ee565b6040518082815260200191505060405180910390f35b3480156101dc57600080fd5b5061021f600480360360208110156101f357600080fd5b81019080803573ffffffffffffffffffffffffffffffffffffffff1690602001909291905050506106f6565b6040518082815260200191505060405180910390f35b34801561024157600080fd5b506102846004803603602081101561025857600080fd5b81019080803573ffffffffffffffffffffffffffffffffffffffff169060200190929190505050610717565b6040518082815260200191505060405180910390f35b3480156102a657600080fd5b506102af6107f3565b604051808273ffffffffffffffffffffffffffffffffffffffff16815260200191505060405180910390f35b3480156102e757600080fd5b5061032a600480360360208110156102fe57600080fd5b81019080803573ffffffffffffffffffffffffffffffffffffffff16906020019092919050505061081c565b60405180821515815260200191505060405180910390f35b34801561034e57600080fd5b50610357610a91565b60405180821515815260200191505060405180910390f35b60026020528060005260406000206000915054906101000a900460ff1681565b600260003373ffffffffffffffffffffffffffffffffffffffff1673ffffffffffffffffffffffffffffffffffffffff16815260200190815260200160002060009054906101000a900460ff166103e557600080fd5b34600360003373ffffffffffffffffffffffffffffffffffffffff1673ffffffffffffffffffffffffffffffffffffffff16815260200190815260200160002060008373ffffffffffffffffffffffffffffffffffffffff1673ffffffffffffffffffffffffffffffffffffffff168152602001908152602001600020819055503460016000828254019250508190555050565b6000600260003373ffffffffffffffffffffffffffffffffffffffff1673ffffffffffffffffffffffffffffffffffffffff16815260200190815260200160002060009054906101000a900460ff166104d157600080fd5b6000600360003373ffffffffffffffffffffffffffffffffffffffff1673ffffffffffffffffffffffffffffffffffffffff16815260200190815260200160002060008473ffffffffffffffffffffffffffffffffffffffff1673ffffffffffffffffffffffffffffffffffffffff1681526020019081526020016000205490506000811015801561056557508060015410155b156106e35760003373ffffffffffffffffffffffffffffffffffffffff168260405180600001905060006040518083038185875af1925050503d80600081146105ca576040519150601f19603f3d011682016040523d82523d6000602084013e6105cf565b606091505b5050905080610646576040517f08c379a00000000000000000000000000000000000000000000000000000000081526004018080602001828103825260108152602001807f4661696c656420746f20726566756e640000000000000000000000000000000081525060200191505060405180910390fd5b6000600360003373ffffffffffffffffffffffffffffffffffffffff1673ffffffffffffffffffffffffffffffffffffffff16815260200190815260200160002060008673ffffffffffffffffffffffffffffffffffffffff1673ffffffffffffffffffffffffffffffffffffffff16815260200190815260200160002081905550816001600082825403925050819055506001925050506106e9565b60009150505b919050565b600047905090565b60008173ffffffffffffffffffffffffffffffffffffffff16319050919050565b6000600260003373ffffffffffffffffffffffffffffffffffffffff1673ffffffffffffffffffffffffffffffffffffffff16815260200190815260200160002060009054906101000a900460ff1661076f57600080fd5b600360003373ffffffffffffffffffffffffffffffffffffffff1673ffffffffffffffffffffffffffffffffffffffff16815260200190815260200160002060008373ffffffffffffffffffffffffffffffffffffffff1673ffffffffffffffffffffffffffffffffffffffff168152602001908152602001600020549050919050565b60008060009054906101000a900473ffffffffffffffffffffffffffffffffffffffff16905090565b6000600260003373ffffffffffffffffffffffffffffffffffffffff1673ffffffffffffffffffffffffffffffffffffffff16815260200190815260200160002060009054906101000a900460ff1661087457600080fd5b6000600360003373ffffffffffffffffffffffffffffffffffffffff1673ffffffffffffffffffffffffffffffffffffffff16815260200190815260200160002060008473ffffffffffffffffffffffffffffffffffffffff1673ffffffffffffffffffffffffffffffffffffffff1681526020019081526020016000205490506000811015801561090857508060015410155b15610a865760008373ffffffffffffffffffffffffffffffffffffffff168260405180600001905060006040518083038185875af1925050503d806000811461096d576040519150601f19603f3d011682016040523d82523d6000602084013e610972565b606091505b50509050806109e9576040517f08c379a00000000000000000000000000000000000000000000000000000000081526004018080602001828103825260148152602001807f4661696c656420746f206469737472696275746500000000000000000000000081525060200191505060405180910390fd5b6000600360003373ffffffffffffffffffffffffffffffffffffffff1673ffffffffffffffffffffffffffffffffffffffff16815260200190815260200160002060008673ffffffffffffffffffffffffffffffffffffffff1673ffffffffffffffffffffffffffffffffffffffff1681526020019081526020016000208190555081600160008282540392505081905550600192505050610a8c565b60009150505b919050565b60006001600260003373ffffffffffffffffffffffffffffffffffffffff1673ffffffffffffffffffffffffffffffffffffffff16815260200190815260200160002060006101000a81548160ff0219169083151502179055507f990c442e6adb818b8fa7db3cf1023decd07f7b66e5306928c7ed527d974192bb33604051808273ffffffffffffffffffffffffffffffffffffffff16815260200191505060405180910390a1600260003373ffffffffffffffffffffffffffffffffffffffff1673ffffffffffffffffffffffffffffffffffffffff16815260200190815260200160002060009054906101000a900460ff1690509056fea26469706673582212200bd0018046de45550a2e366bef96fb954eaa58eb97ed5569769200673824dbed64736f6c634300060c0033",
  "immutableReferences": {},
  "source": "pragma solidity >=0.5 <0.9;\n\n/// @title A middle man smart contract so that trasaction can be reverted later\n/// @author Mei Lazell\nimport \"./MiddleContract.sol\";\ncontract MiddleMan is MiddleContract{\n    \n    address private owner;\n    uint private balance; \n    /// Add an argument for this event, an accountAddress\n    event LogEnrolled(address accountAddress);\n    /// Fill in the visibility keyword\n    /// Hint: We want to create a getter function and allow contracts to be able\n    ///       to see if a user is enrolled.\n    mapping (address => bool) public enrolled;\n    mapping(address => mapping (address => uint)) private records ;\n    /// @notice Get the owner of the smart contract\n    /// @return address The address of the owner for ContractRegister\n    function getOwner() external override view returns (address){\n        return owner;\n    }\n    /// @notice Ensure the funciton using this modifier can only called by the oner\n    modifier onlyOwner() {\n        require(msg.sender == owner);\n        _;\n    }\n    /// @notice Enroll a customer with the middleman when it's requested by owner\n    /// @return bool The users enrolled status\n    // Emit the appropriate event\n    // allow for project verification purpose, remove onlyOwner modifier temprally\n    function enroll() public returns (bool){\n      // 1. enroll of the sender of this transaction\n      enrolled[msg.sender] = true;\n      emit LogEnrolled(msg.sender);\n      return enrolled[msg.sender];\n    }\n\n    /// @notice Withhold the value for reciever from sender when the sender is enrolled\n    /// @param receiver the address of the receiver\n    function withhold (address receiver) public payable {\n        require(enrolled[msg.sender]);\n        records[msg.sender][receiver] = msg.value;\n        balance += msg.value;\n    }\n\n    /// @notice Refund the value to the sender for the reciever when the sender is enrolled\n    /// @param receiver the address of the receiver\n    /// @return bool the bool value whether the refund has been successful\n    function refundSender (address receiver) public returns (bool){\n        require(enrolled[msg.sender]);\n        uint value = records[msg.sender][receiver];\n        if (value >= 0 && balance >= value) {\n            //refund the value to addr_from\n            (bool sent,) = msg.sender.call{value: value}(\"\");\n            require(sent, \"Failed to refund\");\n            records[msg.sender][receiver] = 0;\n            balance -= value;\n            return true;\n        } \n        return false;\n    }\n\n    /// @notice Distribute the value to the reciever when the sender is enrolled\n    /// @param receiver the address of the receiver\n    /// @return bool The bool value whether the distribution has been successful\n    function distributeToReceiver (address payable receiver) public returns (bool){\n        require(enrolled[msg.sender]);\n        uint value = records[msg.sender][receiver];\n        if (value >= 0 && balance >= value) {\n            (bool sent,) = receiver.call{value: value}(\"\");\n            require(sent, \"Failed to distribute\");\n            records[msg.sender][receiver] = 0;\n            balance -= value;\n            return true;\n        } \n        return false;\n    }\n    /// @notice Get the balance of the MiddleMan contract\n    /// @return uint The balance of the contract\n    function getContractBalance() external override view returns (uint) {\n        return address(this).balance;\n    }\n    /// @notice Get the balance for the receiver from sender \n    /// @param receiver the address of the reciever\n    /// @return uint The balance for the receiver from sender \n    function getBalanceForReceiver(address receiver) public view returns (uint) {\n        require(enrolled[msg.sender]);\n        return records[msg.sender][receiver];\n    }\n    /// @notice Get the balance for an address\n    /// @param addr the address of an account\n    /// @return uint The balance for the address\n    function balanceOf(address addr) public view returns(uint)\n    {\n        return addr.balance;\n    }\n\n    constructor() public {\n        owner = msg.sender;\n    }\n    \n    // This contract keeps all Ether sent to it with no way\n    // to get it back.\n    fallback() external payable {}\n\n    receive() external payable {\n        // custom function code\n    }\n\n}",
  "sourcePath": "/Users/mei/cryptostudy/blockchain-developer-bootcamp-final-project/contracts/MiddleMan.sol",
  "compiler": {
    "name": "solc",
    "version": "0.6.12+commit.27d51765.Emscripten.clang"
  },
  "schemaVersion": "3.4.3",
  "updatedAt": "2021-11-27T21:56:17.786Z",
  "networkType": "ethereum",
  "devdoc": {
    "kind": "dev",
    "methods": {
      "balanceOf(address)": {
        "params": {
          "addr": "the address of an account"
        },
        "returns": {
          "_0": "uint The balance for the address"
        }
      },
      "distributeToReceiver(address)": {
        "params": {
          "receiver": "the address of the receiver"
        },
        "returns": {
          "_0": "bool The bool value whether the distribution has been successful"
        }
      },
      "enroll()": {
        "returns": {
          "_0": "bool The users enrolled status"
        }
      },
      "getBalanceForReceiver(address)": {
        "params": {
          "receiver": "the address of the reciever"
        },
        "returns": {
          "_0": "uint The balance for the receiver from sender "
        }
      },
      "getContractBalance()": {
        "returns": {
          "_0": "uint The balance of the contract"
        }
      },
      "getOwner()": {
        "returns": {
          "_0": "address The address of the owner for ContractRegister"
        }
      },
      "refundSender(address)": {
        "params": {
          "receiver": "the address of the receiver"
        },
        "returns": {
          "_0": "bool the bool value whether the refund has been successful"
        }
      },
      "withhold(address)": {
        "params": {
          "receiver": "the address of the receiver"
        }
      }
    },
    "version": 1
  },
  "userdoc": {
    "events": {
      "LogEnrolled(address)": {
        "notice": "Add an argument for this event, an accountAddress"
      }
    },
    "kind": "user",
    "methods": {
      "balanceOf(address)": {
        "notice": "Get the balance for an address"
      },
      "distributeToReceiver(address)": {
        "notice": "Distribute the value to the reciever when the sender is enrolled"
      },
      "enroll()": {
        "notice": "Enroll a customer with the middleman when it's requested by owner"
      },
      "enrolled(address)": {
        "notice": "Fill in the visibility keyword Hint: We want to create a getter function and allow contracts to be able       to see if a user is enrolled."
      },
      "getBalanceForReceiver(address)": {
        "notice": "Get the balance for the receiver from sender "
      },
      "getContractBalance()": {
        "notice": "Get the balance of the MiddleMan contract"
      },
      "getOwner()": {
        "notice": "Get the owner of the smart contract"
      },
      "refundSender(address)": {
        "notice": "Refund the value to the sender for the reciever when the sender is enrolled"
      },
      "withhold(address)": {
        "notice": "Withhold the value for reciever from sender when the sender is enrolled"
      }
    },
    "version": 1
  }
}